{
  "transactions": [
    {
      "hash": "0x1c6bf201a422a0bc6ca94b8533a9b58b6481577c6dd2902ca34d1759a4087172",
      "transactionType": "CREATE",
      "contractName": "ERC20SwapperUUPSV2",
      "contractAddress": "0x6327236C709E2b48535294df0f6EbC0823eEE961",
      "function": null,
      "arguments": null,
      "transaction": {
        "type": "0x02",
        "from": "0x0f9f3645233345b19302f603a2701b88693c8ed4",
        "gas": "0xc67ef",
        "value": "0x0",
        "data": "0x60a06040523060805234801561001457600080fd5b507ff0c57e16840df040f15088dc2f81fe391c3923bec73e23a9662efc9c229c6a00805468010000000000000000810460ff1615906001600160401b031660008115801561005f5750825b90506000826001600160401b0316600114801561007b5750303b155b905081158015610089575080155b156100a75760405163f92ee8a960e01b815260040160405180910390fd5b84546001600160401b031916600117855583156100d557845460ff60401b1916680100000000000000001785555b831561011b57845460ff60401b19168555604051600181527fc7f505b2f371ae2175ee4913f4499e1f2633a7b5936321eed1cdaeb6115181d29060200160405180910390a15b50505050506080516109db6101496000396000818161036f0152818161039801526104de01526109db6000f3fe6080604052600436106100865760003560e01c80638da5cb5b116100595780638da5cb5b146100f0578063ad3cb1cc14610141578063ad5c46481461017f578063f2fde38b1461019f578063f887ea40146101bf57600080fd5b80634f1ef2861461008b57806352d1902d146100a0578063715018a6146100c85780637a2a0456146100dd575b600080fd5b61009e6100993660046107f2565b6101df565b005b3480156100ac57600080fd5b506100b56101fe565b6040519081526020015b60405180910390f35b3480156100d457600080fd5b5061009e61021b565b6100b56100eb3660046108b4565b61022f565b3480156100fc57600080fd5b507f9016d09d72d40fdae2fd8ceac6b6234c7706214fd39c1cd1e609a0528c199300546001600160a01b03165b6040516001600160a01b0390911681526020016100bf565b34801561014d57600080fd5b50610172604051806040016040528060058152602001640352e302e360dc1b81525081565b6040516100bf9190610902565b34801561018b57600080fd5b50600054610129906001600160a01b031681565b3480156101ab57600080fd5b5061009e6101ba366004610935565b610321565b3480156101cb57600080fd5b50600154610129906001600160a01b031681565b6101e7610364565b6101f082610409565b6101fa8282610411565b5050565b60006102086104d3565b5060008051602061098683398151915290565b61022361051c565b61022d6000610577565b565b6040805160e081018252600080546001600160a01b03908116835285811660208401908152610bb88486019081523360608601908152346080870181815260a088018a815260c089018881526001549a516304e45aaf60e01b81528a5189166004820152965188166024880152945162ffffff166044870152925186166064860152516084850152905160a48401529051831660c48301529294909116916304e45aaf9160e40160206040518083038185885af11580156102f4573d6000803e3d6000fd5b50505050506040513d601f19601f820116820180604052508101906103199190610950565b949350505050565b61032961051c565b6001600160a01b03811661035857604051631e4fbdf760e01b8152600060048201526024015b60405180910390fd5b61036181610577565b50565b306001600160a01b037f00000000000000000000000000000000000000000000000000000000000000001614806103eb57507f00000000000000000000000000000000000000000000000000000000000000006001600160a01b03166103df600080516020610986833981519152546001600160a01b031690565b6001600160a01b031614155b1561022d5760405163703e46dd60e11b815260040160405180910390fd5b61036161051c565b816001600160a01b03166352d1902d6040518163ffffffff1660e01b8152600401602060405180830381865afa92505050801561046b575060408051601f3d908101601f1916820190925261046891810190610950565b60015b61049357604051634c9c8ce360e01b81526001600160a01b038316600482015260240161034f565b60008051602061098683398151915281146104c457604051632a87526960e21b81526004810182905260240161034f565b6104ce83836105e8565b505050565b306001600160a01b037f0000000000000000000000000000000000000000000000000000000000000000161461022d5760405163703e46dd60e11b815260040160405180910390fd5b3361054e7f9016d09d72d40fdae2fd8ceac6b6234c7706214fd39c1cd1e609a0528c199300546001600160a01b031690565b6001600160a01b03161461022d5760405163118cdaa760e01b815233600482015260240161034f565b7f9016d09d72d40fdae2fd8ceac6b6234c7706214fd39c1cd1e609a0528c19930080546001600160a01b031981166001600160a01b03848116918217845560405192169182907f8be0079c531659141344cd1fd0a4f28419497f9722a3daafe3b4186f6b6457e090600090a3505050565b6105f18261063e565b6040516001600160a01b038316907fbc7cd75a20ee27fd9adebab32041f755214dbc6bffa90cc0225b39da2e5c2d3b90600090a2805115610636576104ce82826106a3565b6101fa610719565b806001600160a01b03163b60000361067457604051634c9c8ce360e01b81526001600160a01b038216600482015260240161034f565b60008051602061098683398151915280546001600160a01b0319166001600160a01b0392909216919091179055565b6060600080846001600160a01b0316846040516106c09190610969565b600060405180830381855af49150503d80600081146106fb576040519150601f19603f3d011682016040523d82523d6000602084013e610700565b606091505b5091509150610710858383610738565b95945050505050565b341561022d5760405163b398979f60e01b815260040160405180910390fd5b60608261074d5761074882610797565b610790565b815115801561076457506001600160a01b0384163b155b1561078d57604051639996b31560e01b81526001600160a01b038516600482015260240161034f565b50805b9392505050565b8051156107a75780518082602001fd5b604051630a12f52160e11b815260040160405180910390fd5b80356001600160a01b03811681146107d757600080fd5b919050565b634e487b7160e01b600052604160045260246000fd5b6000806040838503121561080557600080fd5b61080e836107c0565b9150602083013567ffffffffffffffff8082111561082b57600080fd5b818501915085601f83011261083f57600080fd5b813581811115610851576108516107dc565b604051601f8201601f19908116603f01168101908382118183101715610879576108796107dc565b8160405282815288602084870101111561089257600080fd5b8260208601602083013760006020848301015280955050505050509250929050565b600080604083850312156108c757600080fd5b6108d0836107c0565b946020939093013593505050565b60005b838110156108f95781810151838201526020016108e1565b50506000910152565b60208152600082518060208401526109218160408501602087016108de565b601f01601f19169190910160400192915050565b60006020828403121561094757600080fd5b610790826107c0565b60006020828403121561096257600080fd5b5051919050565b6000825161097b8184602087016108de565b919091019291505056fe360894a13ba1a3210667c828492db98dca3e2076cc3735a920a3ca505d382bbca2646970667358221220aa1aeb0f3deaf33c9526b6a96a98598eae9122f9918abe06cfd61002ac8d02d664736f6c63430008150033",
        "nonce": "0x5",
        "accessList": []
      },
      "additionalContracts": [],
      "isFixedGasLimit": false
    },
    {
      "hash": "0x960037abedf0b4388756223ff37f6c1e6682e5e18efd02500482ee300d8a8fc6",
      "transactionType": "CALL",
      "contractName": null,
      "contractAddress": "0x6940187908A3bdA9E1d533cFc6e3d9aD4C1D8C7E",
      "function": "upgradeToAndCall(address,bytes)",
      "arguments": [
        "0x6327236C709E2b48535294df0f6EbC0823eEE961",
        "0x"
      ],
      "transaction": {
        "type": "0x02",
        "from": "0x0f9f3645233345b19302f603a2701b88693c8ed4",
        "to": "0x6940187908a3bda9e1d533cfc6e3d9ad4c1d8c7e",
        "gas": "0xcaa5",
        "value": "0x0",
        "data": "0x4f1ef2860000000000000000000000006327236c709e2b48535294df0f6ebc0823eee96100000000000000000000000000000000000000000000000000000000000000400000000000000000000000000000000000000000000000000000000000000000",
        "nonce": "0x6",
        "accessList": []
      },
      "additionalContracts": [],
      "isFixedGasLimit": false
    },
    {
      "hash": "0xb6770e5026272b4c1abbb518493bec910623189b8b203e65f5d05de71ea59cf9",
      "transactionType": "CALL",
      "contractName": null,
      "contractAddress": "0x6940187908A3bdA9E1d533cFc6e3d9aD4C1D8C7E",
      "function": "swapEtherToToken(address,uint256)",
      "arguments": [
        "0x1c7D4B196Cb0C7B01d743Fbc6116a902379C7238",
        "1"
      ],
      "transaction": {
        "type": "0x02",
        "from": "0x0f9f3645233345b19302f603a2701b88693c8ed4",
        "to": "0x6940187908a3bda9e1d533cfc6e3d9ad4c1d8c7e",
        "gas": "0x35188",
        "value": "0xb1a2bc2ec50000",
        "data": "0x7a2a04560000000000000000000000001c7d4b196cb0c7b01d743fbc6116a902379c72380000000000000000000000000000000000000000000000000000000000000001",
        "nonce": "0x7",
        "accessList": []
      },
      "additionalContracts": [],
      "isFixedGasLimit": false
    }
  ],
  "receipts": [
    {
      "transactionHash": "0x1c6bf201a422a0bc6ca94b8533a9b58b6481577c6dd2902ca34d1759a4087172",
      "transactionIndex": "0xd",
      "blockHash": "0xfa170863e47613d04881ad2aecdcbd954cc5d1f48fb61d0314ef9e6e1506062e",
      "blockNumber": "0x5a26d0",
      "from": "0x0F9f3645233345B19302f603a2701b88693c8ed4",
      "to": null,
      "cumulativeGasUsed": "0x1f75e1",
      "gasUsed": "0x98bbb",
      "contractAddress": "0x6327236C709E2b48535294df0f6EbC0823eEE961",
      "logs": [
        {
          "address": "0x6327236C709E2b48535294df0f6EbC0823eEE961",
          "topics": [
            "0xc7f505b2f371ae2175ee4913f4499e1f2633a7b5936321eed1cdaeb6115181d2"
          ],
          "data": "0x0000000000000000000000000000000000000000000000000000000000000001",
          "blockHash": "0xfa170863e47613d04881ad2aecdcbd954cc5d1f48fb61d0314ef9e6e1506062e",
          "blockNumber": "0x5a26d0",
          "transactionHash": "0x1c6bf201a422a0bc6ca94b8533a9b58b6481577c6dd2902ca34d1759a4087172",
          "transactionIndex": "0xd",
          "logIndex": "0x13",
          "removed": false
        }
      ],
      "status": "0x1",
      "logsBloom": "0x00000000000000000000004000000000000000004000000000000000000000000000000000000000000000000000000000000000000000000000000000000000000000000000000000000000000000000000000000000000000000000000000000000000000000000000000000000000000000000000000000000000000000000000000000000000000800000000000000000000000080000000000000000000000000000000000000000000000000000000000000000000080000000000000000000000000000000000000000000000000000000004000000000000000000000000000000000000000000000000000000000000000000000000000000000000",
      "type": "0x2",
      "effectiveGasPrice": "0x14b64101df"
    },
    {
      "transactionHash": "0x960037abedf0b4388756223ff37f6c1e6682e5e18efd02500482ee300d8a8fc6",
      "transactionIndex": "0xe",
      "blockHash": "0xfa170863e47613d04881ad2aecdcbd954cc5d1f48fb61d0314ef9e6e1506062e",
      "blockNumber": "0x5a26d0",
      "from": "0x0F9f3645233345B19302f603a2701b88693c8ed4",
      "to": "0x6940187908A3bdA9E1d533cFc6e3d9aD4C1D8C7E",
      "cumulativeGasUsed": "0x200898",
      "gasUsed": "0x92b7",
      "contractAddress": null,
      "logs": [
        {
          "address": "0x6940187908A3bdA9E1d533cFc6e3d9aD4C1D8C7E",
          "topics": [
            "0xbc7cd75a20ee27fd9adebab32041f755214dbc6bffa90cc0225b39da2e5c2d3b",
            "0x0000000000000000000000006327236c709e2b48535294df0f6ebc0823eee961"
          ],
          "data": "0x",
          "blockHash": "0xfa170863e47613d04881ad2aecdcbd954cc5d1f48fb61d0314ef9e6e1506062e",
          "blockNumber": "0x5a26d0",
          "transactionHash": "0x960037abedf0b4388756223ff37f6c1e6682e5e18efd02500482ee300d8a8fc6",
          "transactionIndex": "0xe",
          "logIndex": "0x14",
          "removed": false
        }
      ],
      "status": "0x1",
      "logsBloom": "0x00000000000000000000000000000000400000000000000000000000000000000000000000000000000000000000000000000000000000000000000000000000000000000000000000000000000002000000000000000000000004000000000000000200000000000000000100000008000000000000000000000000000000000000000000000000000000000000000000000000000000000000000000000000000000000000000000000000100000000000000000080000000000000000000000000020000000000000000000000000000000000000000000000000000000000000000000000000000000000000000000000000000000000000000000000000",
      "type": "0x2",
      "effectiveGasPrice": "0x14b64101df"
    },
    {
      "transactionHash": "0xb6770e5026272b4c1abbb518493bec910623189b8b203e65f5d05de71ea59cf9",
      "transactionIndex": "0xf",
      "blockHash": "0xfa170863e47613d04881ad2aecdcbd954cc5d1f48fb61d0314ef9e6e1506062e",
      "blockNumber": "0x5a26d0",
      "from": "0x0F9f3645233345B19302f603a2701b88693c8ed4",
      "to": "0x6940187908A3bdA9E1d533cFc6e3d9aD4C1D8C7E",
      "cumulativeGasUsed": "0x226fa5",
      "gasUsed": "0x2670d",
      "contractAddress": null,
      "logs": [
        {
          "address": "0x1c7D4B196Cb0C7B01d743Fbc6116a902379C7238",
          "topics": [
            "0xddf252ad1be2c89b69c2b068fc378daa952ba7f163c4a11628f55a4df523b3ef",
            "0x0000000000000000000000006ce0896eae6d4bd668fde41bb784548fb8f59b50",
            "0x0000000000000000000000000f9f3645233345b19302f603a2701b88693c8ed4"
          ],
          "data": "0x0000000000000000000000000000000000000000000000000000000000acbc23",
          "blockHash": "0xfa170863e47613d04881ad2aecdcbd954cc5d1f48fb61d0314ef9e6e1506062e",
          "blockNumber": "0x5a26d0",
          "transactionHash": "0xb6770e5026272b4c1abbb518493bec910623189b8b203e65f5d05de71ea59cf9",
          "transactionIndex": "0xf",
          "logIndex": "0x15",
          "removed": false
        },
        {
          "address": "0xfFf9976782d46CC05630D1f6eBAb18b2324d6B14",
          "topics": [
            "0xe1fffcc4923d04b559f4d29a8bfc6cda04eb5b0d3c460751c2402c5c5cc9109c",
            "0x0000000000000000000000003bfa4769fb09eefc5a80d6e87c3b9c650f7ae48e"
          ],
          "data": "0x00000000000000000000000000000000000000000000000000b1a2bc2ec50000",
          "blockHash": "0xfa170863e47613d04881ad2aecdcbd954cc5d1f48fb61d0314ef9e6e1506062e",
          "blockNumber": "0x5a26d0",
          "transactionHash": "0xb6770e5026272b4c1abbb518493bec910623189b8b203e65f5d05de71ea59cf9",
          "transactionIndex": "0xf",
          "logIndex": "0x16",
          "removed": false
        },
        {
          "address": "0xfFf9976782d46CC05630D1f6eBAb18b2324d6B14",
          "topics": [
            "0xddf252ad1be2c89b69c2b068fc378daa952ba7f163c4a11628f55a4df523b3ef",
            "0x0000000000000000000000003bfa4769fb09eefc5a80d6e87c3b9c650f7ae48e",
            "0x0000000000000000000000006ce0896eae6d4bd668fde41bb784548fb8f59b50"
          ],
          "data": "0x00000000000000000000000000000000000000000000000000b1a2bc2ec50000",
          "blockHash": "0xfa170863e47613d04881ad2aecdcbd954cc5d1f48fb61d0314ef9e6e1506062e",
          "blockNumber": "0x5a26d0",
          "transactionHash": "0xb6770e5026272b4c1abbb518493bec910623189b8b203e65f5d05de71ea59cf9",
          "transactionIndex": "0xf",
          "logIndex": "0x17",
          "removed": false
        },
        {
          "address": "0x6Ce0896eAE6D4BD668fDe41BB784548fb8F59b50",
          "topics": [
            "0xc42079f94a6350d7e6235f29174924f928cc2ac818eb64fed8004e115fbcca67",
            "0x0000000000000000000000003bfa4769fb09eefc5a80d6e87c3b9c650f7ae48e",
            "0x0000000000000000000000000f9f3645233345b19302f603a2701b88693c8ed4"
          ],
          "data": "0xffffffffffffffffffffffffffffffffffffffffffffffffffffffffff5343dd00000000000000000000000000000000000000000000000000b1a2bc2ec500000000000000000000000000000000000000012d1b523ec7c27caa5b63f5196812000000000000000000000000000000000000000000000000000002459cef31c30000000000000000000000000000000000000000000000000000000000036f28",
          "blockHash": "0xfa170863e47613d04881ad2aecdcbd954cc5d1f48fb61d0314ef9e6e1506062e",
          "blockNumber": "0x5a26d0",
          "transactionHash": "0xb6770e5026272b4c1abbb518493bec910623189b8b203e65f5d05de71ea59cf9",
          "transactionIndex": "0xf",
          "logIndex": "0x18",
          "removed": false
        }
      ],
      "status": "0x1",
      "logsBloom": "0x00000000000000000000000000000000000000000000040000000000000200000080000000000000000000000000000000000000000020000000000000000000000010000000000800000008000000000000000000000000000000008000000000000000000000000000000000000000000000000000008000000010000800020040000000100000000200000000000000000001000000000000000000000000000020000000000000000000000000000000000000000000000000000000000000000002000000000002000000000000000020000000000000200000000000000000001000000000000010000000000000000001000000400000200000000000",
      "type": "0x2",
      "effectiveGasPrice": "0x14b64101df"
    }
  ],
  "libraries": [],
  "pending": [],
  "returns": {},
  "timestamp": 1715780802,
  "chain": 11155111,
  "commit": "93e682b"
}